S01700004763634170706C69636174696F6E332E7372656359
S113000045C0000053C0000051C000004FC00000B4
S11300104DC000004BC0000049C0000047C00000B4
S113002045C0000043C0000041C000003FC00000C4
S11300303DC000003BC0000039C0000037C00000D4
S113004036C0000033C0000031C000002FC00000E3
S11300502DC000002BC0000029C0000027C00000F4
S113006025C0000023C0000021C000001FC0000004
S11300701DC000001BC0000019C0000017C0000014
S113008015C0000013C0000011C0000011241FBEE1
S1130090CFEFD0E1DEBFCDBF21E0A0E0B1E001C0F1
S11300A01D92A430B207E1F765D079C0A9CF1F92A1
S11300B00F920FB60F9211240BB60F928F939F934A
S11300C0EF93FF9380910201909103010196909325
S11300D00301809302010B97FCF01092030110922C
S11300E002018091000190910101892B51F0E5E614
S11300F0F0E080818D7F80831092010110920001D5
S11301000BC0E5E6F0E080818260808381E090E0CE
S11301109093010180930001FF91EF919F918F9142
S11301200F900BBE0F900FBE0F901F901895FC01FF
S11301308081682319F081E090E0089580E090E0E8
S11301400895E4E6F0E080818F7E8083E5E6F0E0C8
S11301508081806180838091630060E190E0E7DFCB
S1130160892BC9F38091630060E190E0E0DF892B83
S1130170C9F70895E4E6F0E0808182608083C5E6F3
S1130180D0E0888182608883DCDF88818D7F8883EA
S113019087B7816087BF83B7876083BFFFCFF89439
S10501A0FFCF8B
S9030000FC
