S01700004763634170706C69636174696F6E332E7372656359
S113000045C000000EC1000023C100005CC0000018
S11300105AC0000058C0000056C0000054C0000080
S113002052C0000050C000004EC000004CC0000090
S11300304AC0000048C0000046C0000099C000004B
S113004043C0000040C000003EC000003CC00000AF
S11300503AC0000038C0000036C0000034C00000C0
S113006032C0000030C000002EC000002CC00000D0
S11300702AC0000028C0000026C0000024C00000E0
S113008022C0000020C000001EC0000011241FBEBA
S1130090CFEFD0E1DEBFCDBF11E0A0E0B1E0E0E200
S11300A0F3E000E00BBF02C007900D92A430B1074B
S11300B0D9F721E0A4E0B1E001C01D92A031B2075C
S11300C0E1F7E6D02BC19CCF1F920F920FB60F928F
S11300D011240BB60F922F933F938F939F93EF931B
S11300E0FF9380910E0190910F01019690930F015F
S11300F080930E014A977CF110920F0110920E0129
S113010080910C0190910D01019690930D018093C3
S11301100C01209102013091030128173907DCF406
S113012080910A0190910B01892B51F0E5E6F0E0F2
S113013080818E7F808310920B0110920A010BC084
S1130140E5E6F0E080818160808381E090E0909337
S11301500B0180930A01FF91EF919F918F913F9141
S11301602F910F900BBE0F900FBE0F901F901895FC
S11301701F920F920FB60F9211240BB60F922F936A
S11301803F938F939F93EF93FF93809108019091F6
S113019009010196909309018093080180910E0151
S11301A090910F014A9784F110920901109208016D
S11301B08091060190910701019690930701809325
S11301C00601209100013091010128173907E4F458
S11301D08091040190910501892B51F0E5E6F0E04E
S11301E080818D7F808310920501109204010BC0E1
S11301F0E5E6F0E080818460808381E090E0909384
S113020005018093040112BEFF91EF919F918F919C
S11302103F912F910F900BBE0F900FBE0F901F9028
S113022018951F920F920FB60F9211248F939F93DC
S113023080910201909103010196909303018093B0
S113024002019F918F910F900FBE0F901F901895F0
S11302501F920F920FB60F9211248F939F93809148
S1130260020190910301019790930301809302018D
S11302701816190634F081E090E0909303018093FE
S113028002019F918F910F900FBE0F901F901895B0
S1130290E4E6F0E0808187608083C5E6D0E0888171
S11302A08160888322D088818E7F888387B781602C
S11302B087BF83B7866083BF80E881BF87B78260CA
S11302C087BF89B7836089BFEAE6F0E080818F60E9
S11302D080837894FFCFFC018081682319F081E04A
S11302E090E0089580E090E00895E4E6F0E08081F5
S11302F08F7E8083E5E6F0E0808180618083809159
S1130300630060E190E0E7DF892BC9F3809163002B
S113031060E190E0E0DF892BC9F70895F894FFCFFE
S107032005000500CB
S9030000FC
