:1000000045C0000061C0000069C00000C9C0000018
:100010005AC0000058C0000056C0000054C0000084
:1000200052C0000050C000004EC000004CC0000094
:100030004AC0000048C0000046C0000073C0000075
:1000400042C0000040C000003EC000003CC00000B4
:100050003AC0000038C0000036C0000034C00000C4
:1000600032C0000030C000002EC000002CC00000D4
:100070002AC0000028C0000026C0000024C00000E4
:1000800022C0000020C000001EC0000011241FBEBE
:10009000CFEFD0E1DEBFCDBF11E0A0E0B1E0E8E3FB
:1000A000F6E000E00BBF02C007900D92A630B1074A
:1000B000D9F721E0A6E0B1E001C01D92AA30B20755
:1000C000E1F77DD0B7C29CCF1F920F920FB60F926F
:1000D00011240F900FBE0F901F9018951F920F9232
:1000E0000FB60F9211248F939F93809102019091EC
:1000F00003010A969093030180930201809102010B
:10010000909103018B35910534F08AE090E0909353
:100110000301809302019F918F910F900FBE0F906A
:100120001F9018951F920F920FB60F9211242F93C4
:100130003F938F939F9380910601909107010196C1
:1001400090930701809306012091000130910101F5
:1001500028173907DCF48091080190910901892B57
:1001600041F088B38F7788BB109209011092080183
:1001700009C088B3806888BB81E090E09093090152
:1001800080930801109207011092060112BE9F9100
:100190008F913F912F910F900FBE0F901F90189548
:1001A0001F920F920FB60F9211248F9381B7865F23
:1001B00081BF8F910F900FBE0F901F90189587E011
:1001C00089BF8AE280936A008AEA8FBD8DE18EBD85
:1001D00088E893E197BD86BD8DE990E09BBD8ABD1F
:1001E00099BD88BD909379008093780083B787602C
:1001F00083BF83B7886483BF83B7806283BF8DE981
:1002000081BF87B3806F87BB87B3806E87BB7894CD
:1002100088B3806688BB409104015091050120910C
:10022000020130910301429FC001439F900D529FF4
:10023000900D112464E670E0D6D1072E000C880BD7
:10024000990BBAD04B015C0120E030E04AE755E45D
:100250003FD16B017C0120E030E040E85FE37AD0E1
:10026000882304F120E03FEF4FE757E4C701B601D0
:100270002BD118169CF420E030E040E251E4C50197
:10028000B40126D16BD006C080E991E00197F1F767
:100290006150710961157105B9F709C0C701B6014F
:1002A0005DD002C061E070E0CB010197F1F788B347
:1002B0008F7988BB809102019091030164E670E020
:1002C000AB01481B590B2091040130910501429F5D
:1002D000C001439F900D529F900D112484D1072E91
:1002E000000C880B990B68D04B015C0120E030E0DA
:1002F0004AE755E4EDD06B017C0120E030E040E8B6
:100300005FE328D0882304F120E03FEF4FE757E474
:10031000C701B601D9D018169CF420E030E040E2C5
:1003200051E4C501B401D4D019D006C080E991E0F0
:100330000197F1F76150710961157105B9F768CF3F
:10034000C701B6010BD002C061E070E0CB0101979C
:10035000F1F75ECF6CD008F481E0089594D088F076
:100360009F5790F0B92F9927B751A0F0D1F0660FA1
:10037000771F881F991F1AF0BA95C9F712C0B130BC
:1003800081F09BD0B1E0089598C0672F782F88271F
:10039000B85F39F0B93FCCF3869577956795B395FB
:1003A000D9F73EF490958095709561957F4F8F4F6A
:1003B0009F4F0895E89409C097FB3EF4909580956F
:1003C000709561957F4F8F4F9F4F9923A9F0F92F1B
:1003D00096E9BB279395F695879577956795B79599
:1003E000F111F8CFFAF4BB0F11F460FF1BC06F5F7F
:1003F0007F4F8F4F9F4F16C0882311F096E911C091
:10040000772321F09EE8872F762F05C0662371F0B1
:1004100096E8862F70E060E02AF09A95660F771FC5
:10042000881FDAF7880F9695879597F90895990FA1
:100430000008550FAA0BE0E8FEEF16161706E807AE
:10044000F907C0F012161306E407F50798F0621BCF
:10045000730B840B950B39F40A2661F0232B242BA4
:10046000252B21F408950A2609F4A140A6958FEFC3
:10047000811D811D089557FD9058440F551F59F057
:100480005F3F71F04795880F97FB991F61F09F3F81
:1004900079F087950895121613061406551FF2CFAA
:1004A0004695F1DF08C0161617061806991FF1CFFA
:1004B00086957105610508940895E894BB27662721
:1004C0007727CB0197F90895B2DF08F48FEF0895ED
:1004D0000BD078C069D028F06ED018F0952309F0C1
:1004E0005AC05FC01124EACFC6DFA0F3959FD1F3B5
:1004F000950F50E0551F629FF001729FBB27F00DD2
:10050000B11D639FAA27F00DB11DAA1F649F662726
:10051000B00DA11D661F829F2227B00DA11D621F75
:10052000739FB00DA11D621F839FA00D611D221F2F
:10053000749F3327A00D611D231F849F600D211D13
:10054000822F762F6A2F11249F5750408AF0E1F0B6
:1005500088234AF0EE0FFF1FBB1F661F771F881FFF
:1005600091505040A9F79E3F510570F014C0A6CF9E
:100570005F3FECF3983EDCF3869577956795B795EA
:10058000F795E7959F5FC1F7FE2B880F911D969514
:10059000879597F9089597F99F6780E870E060E084
:1005A00008959FEF80EC089500240A94161617060C
:1005B00018060906089500240A9412161306140654
:1005C00005060895092E0394000C11F4882352F0B7
:1005D000BB0F40F4BF2B11F460FF04C06F5F7F4F6F
:1005E0008F4F9F4F089597FB072E16F4009406D067
:1005F00077FD08D00BD007FC05D03EF4909581958F
:100600009F4F0895709561957F4F0895AA1BBB1B5E
:1006100051E107C0AA1FBB1FA617B70710F0A61B02
:10062000B70B881F991F5A95A9F780959095BC0123
:08063000CD010895F894FFCFFD
:06063800010032000A007F
:00000001FF
