S01700004763634170706C69636174696F6E322E737265635A
S113000045C0000059C000006FC0000054C000008B
S113001052C0000050C000004EC000004CC00000A0
S11300204AC0000048C0000046C0000044C00000B0
S113003042C0000040C000003EC000003CC00000C0
S11300403AC0000038C0000036C0000034C00000D0
S113005032C0000030C000002EC000002CC00000E0
S11300602AC0000028C0000026C0000024C00000F0
S113007022C0000020C000001EC000001CC0000000
S11300801AC0000018C0000016C0000011241FBED2
S1130090CFEFD0E1DEBFCDBF11E0A0E0B1E0E0E5FD
S11300A0F5E000E00BBF02C007900D92A230B1074B
S11300B0D9F761D04BC2A4CF1F920F920FB60F9203
S11300C011248F939F9380910001909101018C5989
S11300D09F4F90930101809300019F918F910F9006
S11300E00FBE0F901F9018951F920F920FB60F928C
S11300F011248F939F938091000190910101845664
S113010091099093010180930001809100019091E5
S113011001010A9734F484E690E0909301018093FE
S113012000019F918F910F900FBE0F901F90189513
S1130130FC018081682319F081E090E0089580E05B
S113014090E00895E4E6F0E080818F7E8083E5E628
S1130150F0E08081806180838091630060E190E0C1
S1130160E7DF892BC9F38091630060E190E0E0DF71
S1130170892BC9F70895E4E6F0E08081837F8083CA
S1130180808183608083C5E6D0E088818160888334
S1130190D9DF88818E7F888389B7836089BFEAE647
S11301A0F0E08081807F8A6080837894E5E6F0E0E7
S11301B08081816080836091000170910101072E2C
S11301C0000C880B990BABD04B015C0120E030E0B4
S11301D04AE755E430D16B017C0120E030E040E88F
S11301E05FE36BD0882304F120E03FEF4FE757E44F
S11301F0C701B6011CD118169CF420E030E040E29F
S113020051E4C501B40117D15CD006C080E991E086
S11302100197F1F76150710961157105B9F709C0CA
S1130220C701B6014ED002C061E070E0CB01019776
S1130230F1F7E5E6F0E080818E7F80836091000134
S113024070910101072E000C880B990B68D04B01AB
S11302505C0120E030E04AE755E4EDD06B017C011D
S113026020E030E040E85FE328D0882304F120E078
S11302703FEF4FE757E4C701B601D9D018169CF4F5
S113028020E030E040E251E4C501B401D4D019D0FB
S113029006C080E991E00197F1F761507109611599
S11302A07105B9F783CFC701B6010BD002C061E075
S11302B070E0CB010197F1F779CF6CD008F481E0BD
S11302C0089594D088F09F5790F0B92F9927B7518B
S11302D0A0F0D1F0660F771F881F991F1AF0BA9506
S11302E0C9F712C0B13081F09BD0B1E0089598C035
S11302F0672F782F8827B85F39F0B93FCCF38695FC
S113030077956795B395D9F73EF490958095709558
S113031061957F4F8F4F9F4F0895E89409C097FBD5
S11303203EF490958095709561957F4F8F4F9F4FC8
S11303309923A9F0F92F96E9BB279395F69587950C
S113034077956795B795F111F8CFFAF4BB0F11F4CF
S113035060FF1BC06F5F7F4F8F4F9F4F16C0882376
S113036011F096E911C0772321F09EE8872F762FAC
S113037005C0662371F096E8862F70E060E02AF0ED
S11303809A95660F771F881FDAF7880F96958795D9
S113039097F90895990F0008550FAA0BE0E8FEEFAE
S11303A016161706E807F907C0F012161306E40735
S11303B0F50798F0621B730B840B950B39F40A262E
S11303C061F0232B242B252B21F408950A2609F40C
S11303D0A140A6958FEF811D811D089557FD90586A
S11303E0440F551F59F05F3F71F04795880F97FBF5
S11303F0991F61F09F3F79F08795089512161306AF
S11304001406551FF2CF4695F1DF08C016161706DD
S11304101806991FF1CF8695710561050894089512
S1130420E894BB2766277727CB0197F90895B2DFB5
S113043008F48FEF08950BD078C069D028F06ED0FF
S113044018F0952309F05AC05FC01124EACFC6DF23
S1130450A0F3959FD1F3950F50E0551F629FF001D3
S1130460729FBB27F00DB11D639FAA27F00DB11D2C
S1130470AA1F649F6627B00DA11D661F829F2227B5
S1130480B00DA11D621F739FB00DA11D621F839F3C
S1130490A00D611D221F749F3327A00D611D231F12
S11304A0849F600D211D822F762F6A2F11249F5760
S11304B050408AF0E1F088234AF0EE0FFF1FBB1F83
S11304C0661F771F881F91505040A9F79E3F510522
S11304D070F014C0A6CF5F3FECF3983EDCF3869532
S11304E077956795B795F795E7959F5FC1F7FE2BCD
S11304F0880F911D9695879597F9089597F99F67A9
S113050080E870E060E008959FEF80EC0895002497
S11305100A941616170618060906089500240A9464
S113052012161306140605060895092E0394000CEA
S113053011F4882352F0BB0F40F4BF2B11F460FF79
S113054004C06F5F7F4F8F4F9F4F0895F894FFCF84
S1050550E803BA
S9030000FC
