:1000000045C0000022C100005EC000005CC00000CE
:100010005AC0000058C0000056C0000054C0000084
:1000200052C0000050C0000077C000004CC000006B
:100030004AC0000048C0000046C00000EEC00000FA
:1000400042C0000040C000003EC000003CC00000B4
:100050003AC0000038C0000036C0000034C00000C4
:1000600032C0000030C000002EC000002CC00000D4
:100070002AC0000028C0000026C0000024C00000E4
:1000800022C0000020C000001EC0000011241FBEBE
:10009000CFEFD0E1DEBFCDBF11E0A0E0B1E0E0EBFB
:1000A000F3E000E00BBF02C007900D92AC30B10747
:1000B000D9F721E0ACE0B1E001C01D92AB31B2074D
:1000C000E1F706D173C19CCFCF93DF939C01203120
:1000D00087E23807E4F4CAE0D0E0C901BE013FD1AD
:1000E000E6E1F1E08383CB01BE0139D18283C9010E
:1000F00064E670E034D1CB01BE0131D18183C90106
:1001000068EE73E02CD1608381E090E002C080E073
:1001100090E0DF91CF9108951F920F920FB60F924A
:1001200011240BB60F922F933F934F935F938F93AE
:100130009F93EF93FF93809110019091110101968D
:10014000909311018093100103970CF457C0109203
:10015000110110921001109215011092140146C065
:10016000209100013091010182179307E1F421E011
:1001700030E0A90102C0440F551F8A95E2F74BBB3E
:10018000E0911401F0911501EA5EFE4FE081F0E08C
:10019000EE5FFE4F80818068809588BB80E29EE4A0
:1001A0000197F1F71AC021E030E0A90102C0440F25
:1001B000551F8A95E2F74BBBE0911401F0911501B0
:1001C000EA5EFE4FE081F0E0EE5FFE4F80818095B9
:1001D00088BB80E29EE40197F1F780911401909131
:1001E00015010196909315018093140180911401DB
:1001F00090911501843091050CF4B2CFFF91EF91ED
:100200009F918F915F914F913F912F910F900BBED6
:100210000F900FBE0F901F9018951F920F920FB660
:100220000F9211248F939F9380910E0190910F0153
:10023000019690930F0180930E0112BE9F918F91B2
:100240000F900FBE0F901F9018951F920F920FB630
:100250000F9211248F939F9380911201909113011B
:10026000019690931301809312019923A4F0823098
:1002700091051CF0029731F00EC010920F01109200
:100280000E0115C080910E0190910F0190930D0108
:1002900080930C010CC010920D0110920C01109271
:1002A0000F0110920E011092130110921201809111
:1002B000120190911301039724F0109213011092F0
:1002C00012019F918F910F900FBE0F901F90189564
:1002D000E4E6F0E080818F7E8083E5E6F0E08081D7
:1002E0008061808387B7826087BF87B7806487BF5C
:1002F00083B7876083BF85B5856085BD84E581BF91
:1003000089B7816089BFEAE6F0E0808183608083FD
:100310008AB38F608ABB87B38FEF87BB789480E006
:1003200090E0D2DE88EE93E005C0E0E9F1E031979D
:10033000F1F701970097C9F780911201909113018D
:10034000009719F0019729F0F7CF80E090E0BCDE2C
:10035000F3CF80910E0190910F01B6DEEDCF97FBA8
:10036000072E16F4009406D077FD08D00BD007FCBA
:1003700005D03EF4909581959F4F089570956195B5
:100380007F4F0895AA1BBB1B51E107C0AA1FBB1FCB
:10039000A617B70710F0A61BB70B881F991F5A9511
:1003A000A9F780959095BC01CD010895F894FFCFF1
:0C03B00001003F065B4F666D7D277F67F4
:00000001FF
