S01700004763634170706C69636174696F6E372E7372656355
S113000045C0000022C100007FC10000C9C100003A
S11300105AC0000058C0000056C0000054C0000080
S113002052C0000050C0000077C000004CC0000067
S11300304AC0000048C0000046C00000EEC00000F6
S113004042C0000040C000003EC000003CC00000B0
S11300503AC0000038C0000036C0000034C00000C0
S113006032C0000030C000002EC000002CC00000D0
S11300702AC0000028C0000026C0000024C00000E0
S113008022C0000020C000001EC0000011241FBEBA
S1130090CFEFD0E1DEBFCDBF11E0A0E0B1E0E8E1F9
S11300A0F5E000E00BBF02C007900D92AE30B1073F
S11300B0D9F721E0AEE0B1E001C01D92A132B20750
S11300C0E1F778D127C29CCFCF93DF939C012031F5
S11300D087E23807E4F4CAE0D0E0C901BE01F3D1F5
S11300E0ECE1F1E08383CB01BE01EDD18283C90150
S11300F064E670E0E8D1CB01BE01E5D18183C9019A
S113010068EE73E0E0D1608381E090E002C080E0BB
S113011090E0DF91CF9108951F920F920FB60F9246
S113012011240BB60F922F933F934F935F938F93AA
S11301309F93EF93FF93809116019091170101967D
S1130140909317018093160103970CF457C01092F3
S113015017011092160110921B0110921A0146C049
S1130160209100013091010182179307E1F421E00D
S113017030E0A90102C0440F551F8A95E2F74BBB3A
S1130180E0911A01F0911B01E45EFE4FE081F0E082
S1130190EC5FFE4F80818068809588BB80E29EE49E
S11301A00197F1F71AC021E030E0A90102C0440F21
S11301B0551F8A95E2F74BBBE0911A01F0911B01A0
S11301C0E45EFE4FE081F0E0EC5FFE4F80818095BD
S11301D088BB80E29EE40197F1F780911A01909127
S11301E01B01019690931B0180931A0180911A01BF
S11301F090911B01843091050CF4B2CFFF91EF91E3
S11302009F918F915F914F913F912F910F900BBED2
S11302100F900FBE0F901F9018951F920F920FB65C
S11302200F9211248F939F93809114019091150143
S11302300196909315018093140112BE9F918F91A2
S11302400F900FBE0F901F9018951F920F920FB62C
S11302500F9211248F939F9380911801909119010B
S1130260009739F580910201909103018230910544
S113027079F4809114019091150190930F0180936A
S11302800E0183E090E0909303018093020135C056
S1130290039799F580910E0190910F0190931501A8
S11302A08093140182E090E0909303018093020113
S11302B024C0019711F580910201909103018430CB
S11302C0910599F486E090E09093030180930201F4
S11302D0809110019091110190930F0180930E0170
S11302E0109211011092100108C0069731F484E0B5
S11302F090E090930301809302019F918F910F905E
S11303000FBE0F901F9018951F920F920FB60F9269
S113031011240BB60F922F933F934F935F936F93D8
S11303207F938F939F93AF93BF93EF93FF938091AA
S11303300201909103018330910579F480911201B7
S1130340909113010196909313018093120180916F
S1130350120190911301B8DE10C0069771F48091D8
S11303601001909111010196909311018093100155
S11303708091100190911101A7DEFF91EF91BF913F
S1130380AF919F918F917F916F915F914F913F9129
S11303902F910F900BBE0F900FBE0F901F901895CA
S11303A01F920F920FB60F9211240F900FBE0F9051
S11303B01F901895E4E6F0E080818F7E8083E5E667
S11303C0F0E080818061808387B7826087BF87B7D0
S11303D0806487BF83B7876083BF85B5856085BD2B
S11303E088EC81BF89B7876089BFEAE6F0E0808145
S11303F0876080838AB38F608ABB87B38FEF87BBA4
S1130400789488EE93E005C0E0E9F1E03197F1F7E4
S113041001970097C9F780910201909103018230FE
S1130420910521F12CF4009749F00197C9F0F3CF1D
S11304308430910509F1059729F1EDCF80910E01E2
S113044090910F01909315018093140180911401F0
S11304509091150139DE80E29EE40197F1F7DBCF3C
S113046080910E0190910F012FDED5CF8091140160
S11304709091150129DECFCF809110019091110147
S113048023DEC9CF209114013091150180910E0112
S113049090910F01821B930B1816190684F4109285
S11304A01501109214018091100190911101209175
S11304B0140130911501821B930B06DEACCF80E052
S11304C090E002DEA8CF97FB072E16F4009406D026
S11304D077FD08D00BD007FC05D03EF490958195AC
S11304E09F4F0895709561957F4F0895AA1BBB1B7C
S11304F051E107C0AA1FBB1FA617B70710F0A61B20
S1130500B70B881F991F5A95A9F780959095BC0140
S10B0510CD010895F894FFCF1A
S1110518010002003F065B4F666D7D277F6782
S9030000FC
