S01700004763634170706C69636174696F6E342E7372656358
S113000045C0000053C0000051C000004FC00000B4
S11300104DC000004BC0000049C0000047C00000B4
S113002045C0000043C0000041C000003FC00000C4
S11300303DC000003BC0000039C0000037C00000D4
S113004035C0000033C0000031C000002FC00000E4
S11300502DC000002BC0000029C0000027C00000F4
S113006025C0000023C0000021C000001FC0000004
S11300701DC000001CC0000019C0000017C0000013
S113008015C0000013C0000011C0000011241FBEE1
S1130090CFEFD0E1DEBFCDBF21E0A0E0B1E001C0F1
S11300A01D92A230B207E1F733D043C0A9CF1F920B
S11300B00F920FB60F9211240BB60F928F939F934A
S11300C0EF93FF938091000190910101892B51F0EE
S11300D0E5E6F0E080818E7F80831092010110922A
S11300E000010BC0E5E6F0E080818160808381E05F
S11300F090E09093010180930001FF91EF919F9113
S11301008F910F900BBE0F900FBE0F901F901895FC
S1130110E4E6F0E0808187608083EDE7F0E08081B1
S113012084608083EAE8F0E080818360808378944F
S1090130FFCFF894FFCF9D
S9030000FC
